:020000040800F2
:1000000000000824693B00082D3400082F34000844
:100010003134000833340008353400080000000093
:1000200000000000000000000000000071AB0008AC
:10003000373400080000000011AC000801A40008DB
:10004000BD3B0008BD3B0008BD3B0008BD3B0008B0
:10005000BD3B0008BD3B00083934000843340008AC
:10006000BD3B00084D340008BD3B00085934000872
:10007000BD3B0008BD3B0008BD3B0008BD3B000880
:10008000BD3B0008BD3B0008BD3B000869340008CB
:1000900079340008BD3B0008BD3B000889340008E6
:1000A000BD3B0008BD3B0008BD3B0008BD3B000850
:1000B00099340008BD3B0008BD3B0008BD3B00086B
:1000C000BD3B0008BD3B0008BD3B0008BD3B000830
:1000D000BD3B0008BD3B0008BD3B0008BD3B000820
:1000E000A9340008BD3B000800000000BD3B00082B
:1000F000BD3B0008BD3B0008BD3B0008BD3B000800
:10010000BD3B0008BD3B0008BD3B0008BD3B0008EF
:10011000BD3B0008BD3B0008BD3B0008BD3B0008DF
:10012000BD3B0008BD3B0008BD3B0008BD3B0008CF
:10013000BD3B0008BD3B0008BD3B0008BD3B0008BF
:1001400000000000000000000000000000000000AF
:10015000BD3B0008BD3B0008BD3B0008BD3B00089F
:10016000BD3B0008BD3B0008BD3B0008BD3B00088F
:10017000BD3B0008BD3B0008BD3B0008000000007F
:10018000BD3B0008BD3B0008BD3B0008BD3B00086F
:10019000BD3B0008BD3B0008BD3B0008BD3B00085F
:1001A000BD3B0008BD3B0008BD3B0008BD3B00084F
:1001B000BD3B0008BD3B0008BD3B0008BD3B00083F
:1001C000BD3B0008BD3B0008BD3B0008BD3B00082F
:1001D000BD3B0008BD3B0008BD3B0008BD3B00081F
:1001E000BD3B0008BD3B0008BD3B0008BD3B00080F
:1001F000BD3B0008BD3B0008BD3B0008BD3B0008FF
:10020000BD3B0008BD3B0008BD3B0008BD3B0008EE
:10021000BD3B0008BD3B0008BD3B0008BD3B0008DE
:10022000BD3B0008BD3B0008BD3B000800000000CE
:10023000BD3B0008BD3B000800000000BD3B0008BE
:10024000BD3B0008BD3B0008BD3B0008BD3B0008AE
:10025000BD3B0008BD3B0008BD3B0008BD3B00089E
:10026000BD3B0008BD3B0008BD3B0008BD3B00088E
:10027000BD3B0008BD3B0008BD3B0008000000007E
:10028000BD3B0008BD3B0008BD3B0008000000006E
:0802900000000000BD3B000866
:1002A00010B5054C237833B9044B13B10448AFF3B0
:1002B00000800123237010BDF00A0024000000001C
:1002C000A040040808B5034B1BB103490348AFF332
:1002D000008008BD00000000F40A0024A0400408CB
:1002E00081F0004102E000BF83F0004330B54FEAE7
:1002F00041044FEA430594EA050F08BF90EA020F54
:100300001FBF54EA000C55EA020C7FEA645C7FEAE6
:10031000655C00F0E2804FEA5454D4EB5555B8BF09
:100320006D420CDD2C4480EA020281EA030382EA7A
:10033000000083EA010180EA020281EA0303362D0C
:1003400088BF30BD11F0004F4FEA01314FF4801CDF
:100350004CEA113102D0404261EB410113F0004FF1
:100360004FEA03334CEA133302D0524263EB4303A8
:1003700094EA050F00F0A780A4F10104D5F1200E46
:100380000DDB02FA0EFC22FA05F2801841F10001A1
:1003900003FA0EF2801843FA05F359410EE0A5F175
:1003A00020050EF1200E012A03FA0EFC28BF4CF0A6
:1003B000020C43FA05F3C01851EBE37101F000455C
:1003C00007D54FF0000EDCF1000C7EEB00006EEB69
:1003D0000101B1F5801F1BD3B1F5001F0CD34908F3
:1003E0005FEA30004FEA3C0C04F101044FEA44524A
:1003F00012F5800F80F09A80BCF1004F08BF5FEAD1
:10040000500C50F1000041EB045141EA050130BDB0
:100410005FEA4C0C404141EB0101013C28BFB1F5C2
:10042000801FE9D291F0000F04BF01460020B1FA0D
:1004300081F308BF2033A3F10B03B3F120020CDAE0
:100440000C3208DD02F1140CC2F10C0201FA0CF0BE
:1004500021FA02F10CE002F11402D8BFC2F1200C23
:1004600001FA02F120FA0CFCDCBF41EA0C019040D9
:10047000E41AA2BF01EB0451294330BD6FEA040422
:100480001F3C1CDA0C340EDC04F11404C4F120020D
:1004900020FA04F001FA02F340EA030021FA04F31F
:1004A00045EA030130BDC4F10C04C4F1200220FA76
:1004B00002F001FA04F340EA0300294630BD21FAB4
:1004C00004F0294630BD94F0000F83F4801306BF7A
:1004D00081F480110134013D4EE77FEA645C18BF6E
:1004E0007FEA655C29D094EA050F08BF90EA020F05
:1004F00005D054EA000C04BF1946104630BD91EAFD
:10050000030F1EBF0021002030BD5FEA545C05D1FF
:100510004000494128BF41F0004130BD14F580043E
:100520003CBF01F5801130BD01F0004545F0FE41B2
:1005300041F470014FF0000030BD7FEA645C1ABFE7
:10054000194610467FEA655C1CBF0B46024650EA1E
:10055000013406BF52EA033591EA030F41F400214A
:1005600030BD00BF90F0000F04BF0021704730B5D0
:100570004FF4806404F132044FF000054FF00001A5
:1005800050E700BF90F0000F04BF0021704730B566
:100590004FF4806404F1320410F0004548BF40423B
:1005A0004FF000013EE700BF42004FEAE2014FEA90
:1005B00031014FEA02701FBF12F07F4393F07F4F6B
:1005C00081F06051704732F07F4208BF704793F06E
:1005D0007F4F04BF41F40021704730B54FF4607481
:1005E00001F0004521F000411CE700BF50EA010284
:1005F00008BF704730B54FF000050AE050EA01022D
:1006000008BF704730B511F0004502D5404261EB9C
:1006100041014FF4806404F132045FEA915C3FF4DD
:10062000D8AE4FF003025FEADC0C18BF03325FEA7A
:10063000DC0C18BF033202EBDC02C2F1200300FA2B
:1006400003FC20FA02F001FA03FE40EA0E0021FA50
:1006500002F11444BDE600BF4A0011D212F50012A7
:1006600011D20DD56FF47873B3EB62520ED44FEA0A
:10067000C12343F0004343EA505323FA02F070478A
:100680004FF00000704750EA013002D14FF0FF30C8
:1006900070474FF0000070474FEA4102B2F1E0436B
:1006A00024BFB3F5001CDCF1FE5C0DD901F0004C59
:1006B0004FEAC0024CEA5070B2F1004F40EB8300A9
:1006C00008BF20F00100704711F0804F21D113F1D5
:1006D0003872BCBF01F00040704741F480114FEA0E
:1006E0005252C2F11802C2F1200C10FA0CF320FA97
:1006F00002F018BF40F001004FEAC1234FEAD323B4
:1007000003FA0CFC40EA0C0023FA02F34FEA43031D
:10071000CCE77FEA625307D150EA01331EBF4FF0A6
:10072000FE4040F44000704701F0004040F0FE40C1
:1007300040F40000704700BF7BB972B90029BEBF0A
:1007400000204FF0004106E008BF00281CBF6FF0FA
:1007500000414FF0FF3000F0D3B9ADF1080C6DE966
:1007600004CE002909DB002B1ADB00F04DF8DDF880
:1007700004E0DDE9022304B07047404261EB41012F
:10078000002B1BDB00F040F8DDF804E0DDE902237C
:1007900004B0404261EB4101524263EB43037047B6
:1007A000524263EB430300F02FF8DDF804E0DDE98B
:1007B000022304B0404261EB41017047524263EBB7
:1007C000430300F021F8DDF804E0DDE9022304B082
:1007D000524263EB4303704753B94AB9002908BF3B
:1007E00000281CBF4FF0FF314FF0FF3000F088B9F8
:1007F000ADF1080C6DE904CE00F006F8DDF804E078
:10080000DDE9022304B070472DE9F047089D8E46CC
:1008100004468846002B4AD18A42174662D9B2FA6A
:1008200082F64EB1C6F1200301FA06F820FA03F36E
:10083000B74043EA0808B4404FEA174E1FFA87FC56
:10084000B8FBFEF1230C0EFB118843EA084301FBC1
:100850000CF29A4209D9FB1801F1FF3080F0EA80CE
:100860009A4240F2E78002393B449A1AA3B2B2FBA3
:10087000FEF00EFB102243EA024300FB0CFC9C45F9
:1008800009D9FB1800F1FF3280F0D6809C4540F278
:10089000D3803B44023840EA0140A3EB0C03002123
:1008A0001DB1F3400022C5E90032BDE8F0878B425C
:1008B00005D90DB1C5E9000100210846F5E7B3FAF5
:1008C00083F1002946D1734502D3824200F20581AB
:1008D000841A6EEB030201209046002DE5D0C5E995
:1008E0000048E2E7002A00F09080B2FA82F6002E7B
:1008F00040F0A4808A1A030C4FEA174E80B2BCB2B3
:100900000121B2FBFEFC0EFB1C2243EA024304FB66
:100910000CF29A4207D9FB180CF1FF3802D29A4226
:1009200000F2E080C4469B1AB3FBFEF20EFB1233CA
:1009300040EA034302FB04F49C4207D9FB1802F18E
:10094000FF3002D29C4200F2CA8002461B1B42EAE0
:100950000C40A5E7C1F120068B4022FA06F71F43A1
:100960000EFA01F420FA06F32EFA06FE4FEA1749B2
:10097000234300FA01F81FFA87FCBEFBF9F01C0CB8
:1009800009FB10EE44EA0E4400FB0CFEA64502FAF9
:1009900001F209D93C1900F1FF3A80F09C80A6458C
:1009A00040F2998002383C44A4EB0E041FFA83FE07
:1009B000B4FBF9F309FB13444EEA044403FB0CFCBB
:1009C000A44508D93C1903F1FF3E80F08280A4457C
:1009D0007FD9023B3C4443EA0040A4EB0C04A0FB5B
:1009E00002EC64457346E14662D35FD05DB1B8EB7B
:1009F000030264EB090404FA06F622FA01F31E432B
:100A0000CC40C5E9006400214FE7B1FBF2FC010CCA
:100A100041EA0E4180B240EA01423B4638463C463C
:100A2000B846BE462026B1FBF7F1A2EB080241EA28
:100A30000C4166E7014618E710462CE7C6F1200294
:100A40002EFA02F3B740B14020FA02F24FEA174EF5
:100A50000A43B3FBFEF8BCB20EFB1833110C41EA9B
:100A6000034108FB04F9B04089454FEA104380B2C6
:100A70003ED9791808F1FF3C01D289451FD8A1EB76
:100A80000901B1FBFEF909FB04F80EFB191192B242
:100A900042EA0142424529D2BA1809F1FF31C4D2D3
:100AA0004245C2D2A9F102013A44BEE7F0459DD2C7
:100AB000BEEB02036CEB070C0138E14696E7A7EBAF
:100AC00009094944A8F1020CB1FBFEF909FB04F83D
:100AD000DBE773467FE7504666E70846FDE63B44A2
:100AE000023A33E7ACF1020C3B441CE749469CE771
:100AF000A1EB0901C446B1FBFEF909FB04F8C4E708
:100B0000704700BF10F8012B11F8013B012A28BFE4
:100B10009A42F7D0D01A7047034613F8012B002AE7
:100B2000FBD1181A013870470000000000000000D7
:100B300001F0FF01102A2BDB10F0070F08D010F88E
:100B4000013B013A8B422DD010F0070F42B3F6D192
:100B5000F0B441EA012141EA014122F007047FF0AB
:100B600000070023F0E80256083C85EA010586EA02
:100B7000010685FA47F5A3FA87F586FA47F6A5FA3E
:100B800087F68EB9EED1F0BC01F0FF0102F007024A
:100B900032B110F8013B013A83EA010313B1F8D1F5
:100BA0000020704701387047002D06BF35460338D6
:100BB000073815F0010F07D1013015F4807F02BF0F
:100BC000013015F4C03F0130F0BC0138704700BF60
:100BD00070B54FF0FF0C4CF4E06C1CEA11541DBFD3
:100BE0001CEA135594EA0C0F95EA0C0F00F0DEF89E
:100BF0002C4481EA030621EA4C5123EA4C5350EA83
:100C0000013518BF52EA033541F4801143F48013D3
:100C100038D0A0FB02CE4FF00005E1FB02E506F064
:100C20000042E0FB03E54FF00006E1FB03569CF0B9
:100C3000000F18BF4EF0010EA4F1FF04B6F5007FBF
:100C400064F5407404D25FEA4E0E6D4146EB060631
:100C500042EAC62141EA55514FEAC52040EA5E50BA
:100C60004FEACE2EB4F1FD0C88BFBCF5E06F1ED864
:100C7000BEF1004F08BF5FEA500E50F1000041EB9B
:100C8000045170BD06F0004646EA010140EA020048
:100C900081EA0301B4EB5C04C2BFD4EB0C0541EA6A
:100CA000045170BD41F480114FF0000E013C00F37F
:100CB000AB8014F1360FDEBF002001F0004170BDA3
:100CC000C4F10004203C35DA0C341BDC04F11404BC
:100CD000C4F1200500FA05F320FA04F001FA05F248
:100CE00040EA020001F0004221F0004110EBD37015
:100CF00021FA04F642EB06015EEA430E08BF20EA41
:100D0000D37070BDC4F10C04C4F1200500FA04F3E3
:100D100020FA05F001FA04F240EA020001F0004175
:100D200010EBD37041F100015EEA430E08BF20EAE8
:100D3000D37070BDC4F1200500FA05F24EEA020E30
:100D400020FA04F301FA05F243EA020321FA04F05F
:100D500001F0004121FA04F220EA020000EBD37016
:100D60005EEA430E08BF20EAD37070BD94F0000F16
:100D70000FD101F00046400041EB010111F4801F4A
:100D800008BF013CF7D041EA060195F0000F18BFFB
:100D9000704703F00046520043EB030313F4801F37
:100DA00008BF013DF7D043EA0603704794EA0C0FF1
:100DB0000CEA135518BF95EA0C0F0CD050EA410607
:100DC00018BF52EA4306D1D181EA030101F0004184
:100DD0004FF0000070BD50EA410606BF10461946AC
:100DE00052EA430619D094EA0C0F02D150EA0136B8
:100DF00013D195EA0C0F05D152EA03361CBF1046F9
:100E000019460AD181EA030101F0004141F0FE4197
:100E100041F470014FF0000070BD41F0FE4141F41B
:100E2000780170BD70B54FF0FF0C4CF4E06C1CEA1B
:100E300011541DBF1CEA135594EA0C0F95EA0C0FD0
:100E400000F0A7F8A4EB050481EA030E52EA03358B
:100E50004FEA013100F088804FEA03334FF08055AC
:100E600045EA131343EA12634FEA022245EA1115D9
:100E700045EA10654FEA00260EF000419D4208BF8A
:100E8000964244F1FD0404F5407402D25B084FEA37
:100E90003202B61A65EB03055B084FEA32024FF4E3
:100EA00080104FF4002CB6EB020E75EB030E22BF40
:100EB000B61A754640EA0C005B084FEA3202B6EB00
:100EC000020E75EB030E22BFB61A754640EA5C00AF
:100ED0005B084FEA3202B6EB020E75EB030E22BF3F
:100EE000B61A754640EA9C005B084FEA3202B6EB40
:100EF000020E75EB030E22BFB61A754640EADC00FF
:100F000055EA060E18D04FEA051545EA16754FEA60
:100F100006164FEAC30343EA52734FEAC2025FEA7E
:100F20001C1CC0D111F4801F0BD141EA00014FF00D
:100F300000004FF0004CB6E711F4801F04BF0143DE
:100F40000020B4F1FD0C88BFBCF5E06F3FF6AFAEFA
:100F5000B5EB030C04BFB6EB020C5FEA500C50F18A
:100F6000000041EB045170BD0EF0004E4EEA11310D
:100F700014EB5C04C2BFD4EB0C0541EA045170BD14
:100F800041F480114FF0000E013C90E645EA060E58
:100F90008DE60CEA135594EA0C0F08BF95EA0C0F86
:100FA0003FF43BAF94EA0C0F0AD150EA01347FF4CE
:100FB00034AF95EA0C0F7FF425AF104619462CE7A5
:100FC00095EA0C0F06D152EA03353FF4FDAE104608
:100FD000194622E750EA410618BF52EA43067FF459
:100FE000C5AE50EA41047FF40DAF52EA43057FF4E9
:100FF000EBAE12E74FF0FF3C06E000BF4FF0010CF4
:1010000002E000BF4FF0010C4DF804CD4FEA410C57
:101010007FEA6C5C4FEA430C18BF7FEA6C5C1BD024
:1010200001B050EA410C0CBF52EA430C91EA030FA5
:1010300002BF90EA020F0020704710F1000F91EA02
:10104000030F58BF994208BF90422CBFD8176FEAD0
:10105000E37040F0010070474FEA410C7FEA6C5C9E
:1010600002D150EA013C07D14FEA430C7FEA6C5CA5
:10107000D6D152EA033CD3D05DF8040B704700BFD1
:101080008446104662468C461946634600E000BF1F
:1010900001B5FFF7B7FF002848BF10F1000F01BDF1
:1010A0004DF808EDFFF7F4FF0CBF012000205DF8BC
:1010B00008FB00BF4DF808EDFFF7EAFF34BF012041
:1010C00000205DF808FB00BF4DF808EDFFF7E0FFDA
:1010D00094BF012000205DF808FB00BF4DF808ED2B
:1010E000FFF7CEFF94BF012000205DF808FB00BF92
:1010F0004DF808EDFFF7C4FF34BF012000205DF874
:1011000008FB00BF4FEA410C7FEA6C5C02D150EA59
:10111000013C0AD14FEA430C7FEA6C5C02D152EAEF
:10112000033C02D14FF0000070474FF001007047C0
:101130004FEA410212F5001215D211D56FF47873FF
:10114000B3EB625212D94FEAC12343F0004343EAA2
:10115000505311F0004F23FA02F018BF404270477D
:101160004FF00000704750EA013005D111F0004007
:1011700008BF6FF0004070474FF00000704700BF9D
:1011800070B588B00A2001F0C7F86C46314D0FCD1C
:101190000FC495E80F0007C423802F48868F2F497E
:1011A000A1FB0636760A2E4BA3FB0642920802EB01
:1011B00042025400361BB6B2B0F84650A1FB0515EA
:1011C0006D0AA3FB05239B0803EB43035A00AD1AEA
:1011D000ADB2002407E0234600221146104601F07C
:1011E00025F80134A4B2042C11D8B442F3D204EB94
:1011F000440000F120030DEB0300234610F81E2CE1
:1012000010F81F1C10F8200C01F010F8E9E7092471
:1012100007E0234600221146104601F007F8013C82
:10122000A4B2042C13D9C4F10903AB42F1DA04EBE4
:10123000440000F120030DEB0300234610F81E2CA0
:1012400010F81F1C10F8200C00F0F0FFE7E708B0C2
:1012500070BD00BFB8400408680B002491739F5D07
:10126000ABAAAAAA38B500F02BFD80B12E483CF0FD
:10127000F7FF01252D4B1D702D4C022323702D48A7
:101280003DF052F825702C483CF0EAFF0AE0044695
:101290002A483CF0E5FF45E02E203CF0F3FFC82053
:1012A00009F061F9264B1B78002BF5D025483DF05D
:1012B0003BF825483DF038F84FF4FA7009F053F93F
:1012C0001B4C0223237021483DF02EF8012323708C
:1012D0001F483CF0C5FF05E02E203CF0D3FFC8209E
:1012E00009F041F91B4B1B78002BF5D015483DF058
:1012F0001BF819483DF018F80D4D02232B700421FE
:1013000016483CF0ADFF0A2009F02DF914491548A4
:101310003CF0A6FF0A2009F026F901242C7012489F
:101320003DF002F8204638BD4C410408FB0B002478
:10133000FC0B00245841040880410408A44104081F
:10134000F70B0024C0410408B4410408C441040858
:10135000EC410408F60B0024144204082842040857
:1013600048420408804204088442040810B5044638
:10137000084B02221A70FFF7CFFB014606483CF0EB
:101380006FFF0A2009F0EFF8214604483CF068FF9F
:1013900010BD00BFFC0B0024284204088042040852
:1013A0002DE9F04F2DED048BFBB06EAC5C4D0FCDF5
:1013B0000FC40FCD0FC495E80F0007C4238062ACA3
:1013C000584D0FCD0FC40FCD0FC495E80F0007C4C3
:1013D0002380554B1B78002B58D1544C26786778C6
:1013E00094F87B80B4F83C90B4F846A02579D4F802
:1013F00010B094ED058AD4ED068A94ED099AD4EDE7
:10140000159A606EFFF7D0F8CDE9120119EE900A37
:10141000FFF7CAF8CDE9100119EE100AFFF7C4F87A
:10142000CDE90E0118EE900AFFF7BEF8CDE90C01E8
:1014300018EE100AFFF7B8F8CDE90A015846FFF791
:10144000B3F8CDE9080107950695D4E91C23CDE949
:101450000423CDF808A0CDF80490CDF800803B46D9
:1014600032466EA917A83CF067FF2F4B01221A7075
:1014700017A8FFF77BFF4FF49672002117A83CF0E6
:10148000C0FF7BB0BDEC048BBDE8F08F274C638FB1
:101490001493B4F844101591E57894F94E6094F9DA
:1014A0005C7094F8028094F94F9094F95DA094F8E0
:1014B00005B094ED078AD4ED088A94ED169AA06ED3
:1014C000FFF772F8CDE9100119EE100AFFF76CF87A
:1014D000CDE90E0118EE900AFFF766F8CDE90C0190
:1014E00018EE100AFFF760F8CDE90A01CDF820B038
:1014F000CDF81CA0CDF81890CDF814800497039671
:101500000295D4E91C23CDE90023159B149A62A906
:1015100017A83CF011FF044B00221A70A8E700BF87
:1015200098420408C84204080C0B0024680B0024ED
:1015300038B50C46944B984200F0E48020D8934B89
:10154000984260D0924B984200F0AE80914B984206
:101550007DD10B784A7803EB02238F4A02EB6302BA
:101560008E4BDA868A78C97802EB01229A86227934
:1015700083F83820627902F0030283F8392066E0AC
:10158000874B984264D003F5807398425FD10B7803
:10159000323B824D85F84E304B78323B85F84F30E8
:1015A0008B78C87803EB0020FEF7ECFF74A3D3E937
:1015B0000023FFF70DFBFFF76FF8286523796079AB
:1015C00003EB0020FEF7DEFF6DA3D3E90023FFF756
:1015D000FFFA0022734BFEF787FEFFF75DF86865A0
:1015E000A379E07903EB0020FEF7CCFF64A3D3E9F5
:1015F0000023FFF7EDFA00226A4BFEF775FEFFF7B6
:101600004BF8A86523E00A784B7802EB0322624B83
:1016100003EB6203614D6B858B78CA7803EB022381
:101620002B850B7985F82C304B7903F0030385F873
:101630002D308B79C87903EB0020FEF7A3FF50A370
:10164000D3E90023FFF7C4FAFFF726F8286338BD73
:101650000B784A7803EB02234F4A02EB63024F4BAD
:101660009A878A78C97802EB01225A87227983F80F
:101670003E20627902F0010283F83F206279C2F3D2
:10168000400283F840206179A279920142EA9102F6
:1016900083F84120A279D20983F84220E27902F04E
:1016A000030283F84320D2E70B784A7803EB022346
:1016B000394A02EB6302394BA3F846208A78C9788D
:1016C00002EB0122A3F84420227983F848206279B2
:1016D00002F0010283F849206279C2F3400283F8E4
:1016E0004A206179A279920142EA910283F84B2063
:1016F000A279D20983F84C20E27902F0030283F840
:101700004D20A4E70B78323B244D85F85C304B78B4
:10171000323B85F85D308B78C87803EB0020FEF70C
:1017200031FF17A3D3E90023FFF752FAFEF7B4FF06
:1017300028662379607903EB0020FEF723FF10A3CE
:10174000D3E90023FFF744FA0022164BFEF7CCFD45
:10175000FEF7A2FF6866A379E07903EB0020FEF7AD
:1017600011FF07A3D3E90023FFF732FA00220D4B44
:10177000FEF7BAFDFEF790FFA86668E7AFF30080BA
:101780009A9999999999B93FEF21B30C21EFC10822
:10179000EF21B20C21EFB108F0D8FFFF680B002455
:1017A000EFC6FF0C0000994038B50C467E4B9842BE
:1017B00000F0C18039D8502848D040F21123984217
:1017C00032D10A78794B1A704A785A708A789A70AE
:1017D000CA78DA700A7902F00102DA710A79C2F382
:1017E00040021A720A79C2F380025A720A79C2F36D
:1017F000C0029A720A79C2F30012DA720A79C2F34D
:1018000040121A730A79C2F380125A730A79D20904
:101810009A734A7902F001029A714A79C2F341122D
:101820001A718A795A3A5A7138BD614B9842FBD184
:101830000A784B7803EB02235C4AA2F87E300978E1
:10184000637803EB0123A2F88030EDE74B78574A29
:10185000D373512B3CD0532BE6D18878CB7840EA18
:10186000032000B2FEF78EFE00224FF07C53FFF7FC
:10187000AFF900224F4BFFF7ABF9FEF70DFF4B4DD1
:1018800068622079637940EA032000B2FEF77AFEAD
:1018900000224FF07C53FFF79BF90022454BFFF7E6
:1018A00097F9FEF7F9FE2862A079E37940EA032070
:1018B00000B2FEF767FE00224FF07C53FFF788F975
:1018C00000223C4BFFF784F9FEF7E6FEE861ABE748
:1018D0008B78CA7843EA02231BB207EE903AF8EEFF
:1018E000E77ADFED356A67EEA67AB3EE007A67EE47
:1018F000877A2E4AC2ED047A0B79497943EA0123AB
:101900001BB207EE903AF8EEE77A67EEA67A67EE3A
:10191000877AC2ED057AA379E17943EA01231BB204
:1019200007EE903AF8EEE77A67EEA67A67EE877AE6
:10193000C2ED067A78E74B78087803EB0020FEF7D3
:1019400021FE17A3D3E90023FFF742F9174DFEF755
:1019500083FEA5F86C00E378A07803EB0020FEF787
:1019600011FE0FA3D3E90023FFF732F90022134B36
:10197000FEF7BAFCC5E91C01237985F87830637954
:1019800085F87930A3791B0985F87A30A37903F0BB
:101990000F0385F87B30E37985F87C3044E700BF9E
:1019A0009A9999999999B93FF3406018680B002466
:1019B000F3406118008066400000003800408F400E
:1019C00008B51021384804F09FFA40B9374A137817
:1019D00043F001031370364A13780133137010215A
:1019E000344804F091FA40B9304A137843F00203C6
:1019F00013702F4A13780133137080212A4804F0A2
:101A000083FA40B9294A137843F004031370284A33
:101A10001378013313704021264804F075FA40B959
:101A2000224A137843F008031370214A13780133D4
:101A3000137040211C4804F067FA40B91B4A137820
:101A400043F0100313701A4A1378013313702021E6
:101A5000184804F059FA40B9144A137843F02003A7
:101A60001370134A137801331370114B187818B19F
:101A7000114B1B78012B09D070B10D4B00221A704D
:101A80000D4B01221A70094B187808BD0020084B35
:101A90001870064B1870F8E70023054A1370064AC1
:101AA0001370024A1370F0E7000402580F0B002471
:101AB0000E0B0024001002580D0B002410B510214D
:101AC000154804F021FA28B300241021134804F02B
:101AD0001BFA08B944F0020480210F4804F014FAFC
:101AE00008B944F0040440210C4804F00DFA08B988
:101AF00044F008044021084804F006FA08B944F00C
:101B000010042021054804F0FFF908B944F020042E
:101B1000204610BD0124D8E70004025800100258E6
:101B200010B5044608280BD0B4F5004F1AD0402C4D
:101B30002AD0022C39D0202C48D0012C57D010BDEF
:101B40000821334804F0E0F90028EDD14FF40041BA
:101B5000304804F0D9F90028E6D12F4A1378013330
:101B60001370E1E74FF400412A4804F0CDF9002852
:101B7000DDD10821264804F0C7F90028D7D1264A2C
:101B80001378013B1370D2E74021214804F0BCF9DF
:101B90000028CED10221214804F0B6F90028C8D18E
:101BA0001F4A137801331370C3E702211B4804F066
:101BB000ABF90028BFD14021154804F0A5F9002851
:101BC000B9D1174A1378013B1370B4E720211548A7
:101BD00004F09AF90028B0D10121104804F094F9DA
:101BE0000028AAD1104A137801331370A5E7012108
:101BF0000A4804F089F90028A1D12021094804F0FD
:101C000083F900289BD1084A1378013B137096E7AB
:101C1000000C025800000258F10B0024001002587A
:101C2000F20B002400040258F30B002470B50546A3
:101C30000E464FF4FA7008F096FC1B4B02221A7005
:101C400029461A483CF00CFB4FF4FA7008F08BFC64
:101C50000024314616483CF0DCFBA0B92946134865
:101C60003CF0FEFA4FF4FA7008F07DFC0134E4B267
:101C7000042CEED90C4B01221A7029460D483CF079
:101C8000EFFA002070BD0124074B1C7029460A485A
:101C90003CF0E6FA6422002105483CF0B2FB074B19
:101CA00000221A702046EDE7FC0B0024F8420408DD
:101CB000000C0024004304080C430408FD0B00241E
:101CC00038B52F4C01224FF48051204604F023F9FF
:101CD00001224FF40051204604F01DF940F6B830BF
:101CE00008F041FC00224FF48051204604F013F923
:101CF00000224FF40051204604F00DF90122214941
:101D0000214808F02DFA0123204A1370204A13704D
:101D100020483CF009FB20483CF006FB00241F4B08
:101D20001D7875B94FF47A7008F01DFC2E203CF038
:101D3000A9FA0134A4B2142CF1D919483CF090FA54
:101D40001BE018483CF0F0FA114B00221A700F4BC0
:101D500002221A7014483CF0E7FA14491448FFF7BD
:101D600065FF054613491448FFF760FF0540EDB2D3
:101D700012491348FFF75AFF0540284638BD00BFF7
:101D8000000C0258640C0024D40F0024FC0B002427
:101D9000FB0B00241443040824430408FA0B00241A
:101DA0003043040840430408544304085C430408D7
:101DB00060430408684304086C430408744304083F
:101DC0008043040838B502685C4B9A4200D038BDA5
:101DD0005B4B1A78FF2A11D0531CDBB258490B70A9
:101DE00058495948007888549A1E8A5C0D2A13D0A5
:101DF00001225549554808F0B3F9E8E70021197068
:101E0000642250483CF0FDFA4FF6FF730A22504915
:101E1000504807F07BFFEBE75A1E8A5C0A2AE7D19D
:101E2000022BE5D04C4A1278002AE1D05A1E4FF618
:101E3000FF7392B2474807F069FF464807F0AAFBD4
:101E40002128FAD045493F48FEF75CFE10B13D4BD2
:101E50001B7853B93B4C6422002120463CF0D1FA58
:101E600001222146394808F07BF93D4935483CF0CC
:101E7000D0FA68B101253B4B1D70324C6422002121
:101E800020463CF0BEFA2A462146304808F068F960
:101E900035492C483CF0BDFA68B10125334B1D7023
:101EA000284C6422002120463CF0ABFA2A46214609
:101EB000264808F055F92E4922483CF0AAFA68B1A4
:101EC00001252C4B1D701F4C6422002120463CF044
:101ED00098FA2A4621461D4808F042F92649194831
:101EE0003CF097FA68B10125244B1D70154C642213
:101EF000002120463CF085FA2A462146134808F086
:101F00002FF91F490F483CF084FA90B10021154B7E
:101F10001970164B1970174B1970184B1970094C22
:101F2000642220463CF06DFA01222146074808F061
:101F300017F9034B00221A705AE700BF004800400F
:101F4000FD0B0024000C0024640C0024D40F00249A
:101F50008C43040868100024FB0B002498430408F9
:101F60009C430408FA0B0024A0430408F70B002448
:101F7000A8430408F60B0024B0430408F80B00241F
:101F8000B8430408024B2C22A3F8FE20704700BF80
:101F900000FF0F60094B2A22A3F8FE20020AA3F8D3
:101FA0000021C0B2A3F800012B22A3F8FE200A0AE8
:101FB000A3F80021C9B2A3F80011704700FF0F6019
:101FC00010B5044600210846FFF7E4FFFFF7DAFFEB
:101FD000002303E0034AA2F800410133B3F5163FA2
:101FE000F8D310BD00FF0F602DE9F8438146884605
:101FF000089E141AA4B20134A4B25F1ABFB201370A
:10200000BFB200250CE004FB053236F812100B4A73
:10201000A2F8001101339BB2A342F4D30135ADB253
:10202000BD4209D205EB080189B24846FFF7B2FF6D
:10203000FFF7A8FF0023EFE7BDE8F88300FF0F607C
:102040002DE9F047642001F0FBFD774CF023A4F864
:10205000FE30C322A4F80021A4F8FE309622A4F892
:1020600000213622A4F8FE203827A4F800714FF092
:102070003A08A4F8FE804FF0050CA4F800C1B42281
:10208000A4F8FE200122A4F80021B121A4F8FE103A
:102090008021A4F800111020A4F80001C020A4F8A9
:1020A000FE00A4F800116421A4F80011C121A4F8D5
:1020B000FE101321A4F80011C220A4F8FE00A720EE
:1020C000A4F80001C520A4F8FE004FF0090EA4F802
:1020D00000E1E820A4F8FE004020A4F800018A20D6
:1020E000A4F800010025A4F80051A4F80051292605
:1020F000A4F800611920A4F80001A520A4F80001AB
:102100003320A4F800014FF0E009A4F8FE90A4F8F1
:1021100000314FF00609A4F800914FF00B0AA4F823
:1021200000A14FF0070AA4F800A1A4F80091A4F8B8
:1021300000C14FF02E0CA4F800C1A4F800014FF02C
:102140004709A4F80091A4F800814FF01708A4F8FB
:1021500000814FF01608A4F80081A4F800C14FF0E8
:102160003108A4F800814FF0E108A4F8FE80A4F83B
:102170000031A4F800E14FF00D08A4F80081A4F8A4
:1021800000E14FF0080EA4F800E14FF0230EA4F890
:1021900000E1A4F800C1A4F800014620A4F8000161
:1021A000A4F80071A4F80011A4F800112C27A4F8D9
:1021B00000714FF03208A4F80081A4F8FE303C21F1
:1021C000A4F80011A4F8FE306923A4F800312123FB
:1021D000A4F8FE302B23A4F8FE30A4F80051A4F894
:1021E0000051A4F800213F23A4F800312A23A4F8C9
:1021F000FE30A4F80051A4F80051A4F80021DF2318
:10220000A4F800311123A4F8FE30782001F018FD65
:10221000A4F8FE60404601F013FDA4F8FE702846C5
:10222000FFF7CEFEBDE8F08700FF0F6070B503EB4F
:1022300043031C0104F5E674344B1C444FF0000CBE
:1022400027E0334BDB680133324EA6FB0363C3F355
:102250004F03013B9BB230E02D4BDB6801332D4E29
:10226000A6FB0363C3F34F03013B9BB238E0284B4B
:10227000DB680133274DA5FB0353C3F34F03013B39
:102280009BB20EF1100E24F81E300CF1010C1FFA57
:102290008CFCBCF1070F38D8654601FA0CF313F03B
:1022A000800FCED01A4BDB6801331A4EA6FB0363B6
:1022B00023F001039BB2013B9BB2E64624F81C309D
:1022C00000FA05F313F0800FC6D0114BDB68013321
:1022D000104EA6FB036323F001039BB2013B9BB2AC
:1022E0000EF1080624F8163002FA05F515F0800FF5
:1022F000BDD0074BDB680133064DA5FB035323F02C
:1023000001039BB2013B9BB2BBE770BD40070024B9
:10231000F40E0024ABAAAAAA70B5054600EB40064D
:10232000F600E636002407E0234600221146104658
:10233000FFF77CFF0134E4B2AC42F5D33346034AE5
:102340000021034806F088FB70BD00BF4007002451
:10235000F40E002408B50021014806F017FD08BD61
:10236000F40E002400B589B04FF0804300930123A0
:10237000019302220292039300230493059369467A
:10238000044803F05DF910B909B05DF804FB00F0F2
:1023900008FFF9E70C0D002400B589B04FF0804329
:1023A00000930123019302220292039300230493DA
:1023B00005936946044803F043F910B909B05DF884
:1023C00004FB00F0EEFEF9E76C0C002430B583B09E
:1023D000FFF7C8FFFFF7E0FF184D002400942346E5
:1023E00022462146284603F070F9009423462246EF
:1023F0002146134803F069F9284603F081F988B9AA
:102400000F4803F07DF980B9002201210B4803F049
:1024100083FA68B900220121094803F07DFA50B916
:1024200003B030BD00F0BDFEEAE700F0BAFEEBE716
:1024300000F0B7FEEEE700F0B4FEF1E70C0D00246B
:102440006C0C002411F0010F2FD010B582B004469F
:10245000164B984204D0164B9C4213D002B010BDCC
:102460006B46144A402103F065F90028F3D1694610
:10247000104B1868FFF798F90F210F4B186808F0F8
:10248000A2F8E8E76B460D4A4021204603F052F9D6
:102490000028E3D16946094B1868FFF749F80F2176
:1024A000054B186808F08FF8D8E770470C0D00242A
:1024B0006C0C0024380B0024000E0024100B0024A8
:1024C00000B583B00B4BD3F8D82042F00102C3F81B
:1024D000D820D3F8D83003F001030193019B0022E8
:1024E00005210B2001F018FC0B2001F025FC03B0A6
:1024F0005DF804FB0044025808B51648164B03600B
:1025000000238360C36003744374837414224261A4
:10251000012282610221C161016242628262C26261
:10252000026343638363C263202202640422426421
:102530008364C264036542658365C36510210166D7
:102540004366826602F032FF00B908BD00F029FE42
:10255000FBE700BF0C0D002400A0004008B51748A1
:10256000174B036000238360C36003744374837458
:1025700014224261012282610221C1610162426230
:102580008262C26202634FF4057141638363C26376
:1025900020220264042242648364C26403654265AB
:1025A0008365C365102101664366826602F0FEFE04
:1025B00000B908BD00F0F5FDFBE700BF6C0C00247E
:1025C00000A4004010B5BAB0044600213591369100
:1025D000379138913991C02204A83BF012FF23684B
:1025E000474A934204D0474A934245D03AB010BD7F
:1025F0004FF400420023CDE9042304A804F002FDB7
:1026000048BB414A136801331360012B26D03F4B6E
:10261000D3F8E02042F00202C3F8E020D3F8E03023
:1026200003F002030193019B4FF44073359302239F
:1026300036930024379438940923399335A93448C4
:1026400003F052FB22460521132001F065FB132005
:1026500001F072FBCAE700F0A4FDD2E72B4BD3F8E0
:10266000EC2042F48072C3F8EC20D3F8EC3003F491
:1026700080730093009BCAE74FF400420023CDE92A
:10268000042304A804F0BEFC48BB1F4A13680133AE
:102690001360012B26D01D4BD3F8E02042F002023C
:1026A000C3F8E020D3F8E03003F002030393039B68
:1026B0004FF44053359302233693002437943894D3
:1026C0000923399335A9124803F00EFB2246052150
:1026D000142001F021FB142001F02EFB86E700F00E
:1026E00060FDD2E7094BD3F8EC2042F48072C3F8C6
:1026F000EC20D3F8EC3003F480730293029BCAE71A
:1027000000A0004000A40040680C002400440258CF
:1027100000040258F0B5B9B00023339334933593D5
:1027200036933793204B1B680BB139B0F0BD1E4B6D
:1027300001221A60C022002102A83BF062FE4FF085
:1027400080720023CDE9022302A804F05BFC38BBB1
:10275000164BD3F8D42042F48052C3F8D420D3F8D7
:10276000D43003F480530193019B4FF68873339365
:102770000227349700263596032536950C24379486
:1027800033A90B4803F0B0FA4CF2B3733393349788
:1027900035963695379433A9064803F0A5FAC4E771
:1027A00000F0FFFCD4E700BFAC0D00240044025849
:1027B00000100258000C025870B58EB00023079329
:1027C000089309930A930B930C930D930093019331
:1027D000029303930493059306931A481A4A0260DE
:1027E00002F5827242608360C3600361102242611D
:1027F0008361C36103624FF48051416283624FF48D
:102800008041C162036343638363C363036402263D
:1028100007960F2508950424099401210A910B922B
:1028200011230C9300960195029403910492059351
:102830006A4607A905F04EFB08B90EB070BD00F05E
:10284000B0FCFAE7B00D00240040005208B5FFF7D5
:1028500061FF08BD08B5324B4FF4F072A3F86C204D
:10286000E2E1304A00211170EEE12F492F4BD3F8FD
:10287000B00034F029FB2B4B1B78002B68D02C4B7D
:102880001B780A2B38D90B3BDBB2042B3ED9284BE3
:1028900000221A7061E02749244BD3F8B00034F0CD
:1028A00013FBE8E72449214BD3F8B00034F00CFBCC
:1028B000E1E722491D4BD3F8B00034F005FBDAE71D
:1028C0001F491A4BD3F8B00034F0FEFAD3E71D4984
:1028D000164BD3F8B00034F0F7FACCE71A49134B93
:1028E000D3F8B00034F0F0FAC5E718490F4BD3F82D
:1028F000B00034F0E9FABEE701210C4B186F0AF082
:102900005FFF0B4A13780133137026E00121074B58
:10291000186F0BF00FFA064A1378013313701CE09E
:10292000680B0024600B0024C0430408E0840124E9
:10293000FD0D0024CC430408D8430408E4430408F4
:10294000F04304080044040814440408184404082C
:102950000121A64B186F0BF0EDF90121A34BD3F821
:10296000B0000BF0E7F9A24B93F83F201AB1A14B4E
:102970001B78042B17D1A04B012119709F4E9B4C43
:102980003146E06F34F0DAFA994D95F8402031463F
:10299000D4F8800034F0D2FA95F841209849D4F860
:1029A0008C0034F0CBFA924B93F849201AB1914B3A
:1029B0001B78042B18D1904B012119708F4E8B4C32
:1029C0003146D4F8900034F0B9FA894D95F84A2090
:1029D0003146D4F8940034F0B1FA95F84B20884988
:1029E000D4F8A00034F0AAFA814B93F842301BB11E
:1029F000804B1B78042B0BD17F4B01221A707C4B30
:102A000093F84C207D49794BD3F8980034F096FA2E
:102A1000774B93F843301BB9764B1B78042B0BD1C3
:102A2000754B01221A70724B93F84D2073496F4B0E
:102A3000D3F89C0034F082FA6D4B93F84C201AB115
:102A40006C4B1B78042B08D16B4B012119706B491F
:102A5000664BD3F8980034F071FA654B93F84D202B
:102A60001AB9644B1B78042B08D1634B01211970F0
:102A700062495E4BD3F89C0034F060FA5C4C94F8E9
:102A80007A205E49594BD3F8A40034F057FA94F8F1
:102A90007B201AB9574B1B78042B08D1564B0121C8
:102AA00019705649514BD3F8A80034F047FA504BEF
:102AB00093F83F30012B69D04D4B9A8FB3F84630D5
:102AC000D21A5049494BD3F8B80034F037FA4A4B80
:102AD0001B78002B7ED00121444B586F0AF070FE0A
:102AE000444B1B78042B7BD00121404B586F0BF0DB
:102AF00021F93F4C444E3D4D22783146286934F04F
:102B00001DFAA28F3146A86C34F018FAB4F84620AA
:102B10003146286D34F012FA94F94E203146686B34
:102B200034F00CFA94F95C203146A86B34F006FAC4
:102B300094F94F203146E86B34F000FA94F95D20A7
:102B40003146286C34F0FAF9B4F880202F49686DCA
:102B500034F0F4F9EE6AFEF7B1FF02462C49304634
:102B600034F0ECF9B4F86C202A49E86C34F0E6F95A
:102B7000002294F87810686C2EF0AEFA2379042BBA
:102B80004FD8DFE803F04993999FA500184B93F8BD
:102B90004930012B90D1164B93F84230012B8BD149
:102BA000134B93F84C30012B86D1114B93F84330E3
:102BB000002B81D10E4B93F84D30002B7FF47CAF6E
:102BC0000B4B93F87B30002B7FF476AF0A4B00223F
:102BD0001A7071E70121054B586F0BF0ABF87FE7D6
:102BE0000121024B586F0AF0EBFD82E7E0840124DB
:102BF000680B0024F40B0024F00B00242844040884
:102C00002C44040830440408344404083C440408B8
:102C100044440408484404083049314B186B34F0EC
:102C200053F9322007F09FFCFEF7CAFE2D4B1870B7
:102C3000FEF744FF2C4B18702C4B9B7B002B7FF432
:102C400010AE2B4A01211170284A9279002A3FF4D4
:102C50000CAE264AD279002A3FF41DAE234A127ADE
:102C6000002A3FF41FAE214A527A002A3FF421AED7
:102C70001E4A927A002A3FF423AE1C4AD27A002AD6
:102C80003FF425AE194A127B002A3FF427AE174ABB
:102C9000527B002A3FF429AE002B7FF4ECAD15499E
:102CA0000F4BD3F8B00034F00FF9E4E512490C4BA8
:102CB000186B34F009F9B4E71049094B186B34F07C
:102CC00003F9AEE70E49064B186B34F0FDF8A8E7A0
:102CD0000C49034B186B34F0F7F8A2E75044040892
:102CE000E0840124F50B0024F40B0024680B00247D
:102CF000600B002420440408544404085844040889
:102D00005C4404086044040830B583B02BE02124FF
:102D100035E02B4A03F120004FF0FF3142F820103C
:102D200003F1600042F820100133072BF1D962B69D
:102D3000019B5B68019A126882F30888002282F383
:102D400014889847FEE701211E4BD3F8BC000AF017
:102D5000F1FF1D4B00221A701C4B186807F013FD81
:102D6000204607F000FC4FF0FF31184B186807F0C1
:102D7000DBFC28F093FA0446B0F1FF3FC7D01448BB
:102D800003F014F9FEF79AFE0328DCD10E4D2B78E0
:102D900001332B7001210B4BD3F8BC000AF010FD5E
:102DA0002B78112BD8D10B4B019372B64FF0E02347
:102DB00000241C615C619C6103F028F92346B4E7A0
:102DC00000E100E0E0840124FC0D0024040E002456
:102DD0001C0E00240098F01F08B5FFF7F7FA04E076
:102DE000FEF7CEF9322007F0BEFB4FF0FF33012291
:102DF00011460348006807F011FC0028F0D1F1E704
:102E0000000E002408B507E04FF4FA7007F0ABFBA2
:102E10000B4B1B78012B0DD0FEF724FA094B1870D1
:102E20000028F1D0084A0021084807F023FB084B8E
:102E30001860E9E7074B186807F077FBECE700BF7D
:102E4000F80B0024F90B0024744D0408592E0008D7
:102E5000080E00240C0E002408B506E0114B18687B
:102E600007F072FB322007F07EFB4FF0FF330122A8
:102E700011460D48006807F0D1FB0028F2D0094B3D
:102E8000186809F011F80328ECD1084B1B78012BC6
:102E9000E4D1074B01221A7006483BF045FAFEF7D1
:102EA0007FFADFE70C0E0024000E0024F80B00244C
:102EB000FC0B00246444040808B5134807F0E6FB43
:102EC000124B1860124A0021124807F0D3FA124B35
:102ED0001860124A0021124807F0CCFA114B186012
:102EE000114A0021114807F0C5FA114B1860114A28
:102EF0000021114807F0BEFA104B1860104807F087
:102F000040FB104B186008BD644D0408040E0024FB
:102F1000044E040855280008180E0024E04D04084B
:102F2000092D0008140E0024BC4D0408D92D0008FA
:102F3000100E0024984D0408052E00080C0E0024E5
:102F4000544D0408000E00242DE9F0438DB00024F8
:102F50000794089409940A940B94604BD3F8E020EA
:102F600042F01002C3F8E020D3F8E02002F0100293
:102F70000192019AD3F8E02042F00402C3F8E02065
:102F8000D3F8E02002F004020292029AD3F8E02083
:102F900042F08002C3F8E020D3F8E02002F0800283
:102FA0000392039AD3F8E02042F00202C3F8E02033
:102FB000D3F8E02002F002020492049AD3F8E02051
:102FC00042F00802C3F8E020D3F8E02002F0080243
:102FD0000592059AD3F8E02042F00102C3F8E02000
:102FE000D3F8E03003F001030693069B3C4F2246E2
:102FF0004FF44051384602F08EFF70230793089437
:1030000001250995DFF8E08007A9404602F06CFE33
:103010004FF440530793089509944FF00309CDF8F6
:10302000289007A9384602F05FFE4FF4004307934B
:103030004FF404160896099507A92A4802F054FE91
:10304000482307930896099507A9384602F04CFED5
:10305000D023079308940995A7F5006707A9384678
:1030600002F042FE202307930896099507A93846E7
:1030700002F03AFECDF81C900896099507A9404643
:1030800002F032FE22460521062000F045FE062011
:1030900000F052FE22460521072000F03DFE0720E9
:1030A00000F04AFE22460521092000F035FE0920E5
:1030B00000F042FE22460521172000F02DFE1720C9
:1030C00000F03AFE22460521282000F025FE2820A7
:1030D00000F032FE0DB0BDE8F08300BF004402589E
:1030E000000C0258000002580010025808B50848A9
:1030F000084B03600323436040F6FF73C3608360A3
:1031000002F01EFF00B908BD00F04BF8FBE700BF5E
:103110001C0E00240048005830B585B000240094EF
:1031200001940294039400F00BFE01258DF80050E9
:103130008DF801404FF0C04301931B238DF80830F8
:103140008DF809408DF80A4003238DF80B308DF877
:103150000C408DF80D408DF80E408DF80F506846EC
:1031600000F00CFE8DF801504FF010530193122324
:103170008DF808308DF809408DF80A508DF80F4011
:10318000684600F0FBFD042000F0E8FD05B030BD0E
:1031900008B50368B3F1804F00D008BD00F03EFDD4
:1031A000FBE772B6FEE7000000B59DB04C2200219F
:1031B00009A83BF026F92022002101A83BF021F9C3
:1031C000022002F0F9FE00230093274B9A6942F493
:1031D00040429A619B6903F440430093234BDA6AAF
:1031E00042F00102DA62DB6A03F001030093009B04
:1031F0001D4B9B6913F4005FFAD0092309934FF428
:1032000080330A9301230E93022312931393052212
:103210001492C0221592169306231793189308232D
:10322000199300231A931B9309A802F0D5FFB8B98C
:103230003F23019303230293002303930823049362
:103240004023059306934FF480620792089304216C
:103250000DEB010003F014FC20B91DB05DF804FB78
:10326000FFF79FFFFFF79DFF00480258000400583A
:1032700008B5FFF751FF374B5B6913F4003F13D1DB
:10328000BFF34F8FBFF36F8F324B0022C3F8502232
:10329000BFF34F8FBFF36F8F5A6942F400325A6108
:1032A000BFF34F8FBFF36F8F2A4B5B6913F4803FDF
:1032B00027D1284B0022C3F88420BFF34F8FD3F8C7
:1032C0008040C4F34E3000E01846C4F3C90243F610
:1032D000E07303EA401343EA82731E49C1F8603287
:1032E0001346013A002BF2D1431E0028ECD1BFF364
:1032F0004F8F4B6943F480334B61BFF34F8FBFF364
:103300006F8F00F05DFCFFF74FFFFFF71DFEFFF72B
:10331000D7F800F01FFA00F099FA00F0CBFA00F0AD
:10332000FDFAFFF7E9F8FFF719F9FFF745FAFFF79C
:10333000DDFE23F0D5FF08482CF012FF09F03AFD1E
:103340003AF0C4FE07F068F8FFF7B6FD07F076F82C
:10335000FEE700BF00ED00E079C0000800B583B0D3
:103360000A4BD3F8F42042F00202C3F8F420D3F859
:10337000F43003F002030193019B00220F216FF050
:10338000010000F0C9FC03B05DF804FB00440258E2
:103390000F2801D90120704710B58AB004460022D9
:1033A00001461C2000F0B8FC1C2000F0C5FC1B4BA3
:1033B0001C601B4BD3F8E82042F00102C3F8E82060
:1033C000D3F8E83003F001030093009B01A902A8A1
:1033D00003F0E6FC079BC3B903F0BEFC0346114AA9
:1033E000A2FB03239B0C013B0F484FF0804202607D
:1033F00040F2E732C260436000230361836005F05E
:103400002BF930B101200AB010BD03F0A5FC430038
:10341000E5E7054804F00EFFF5E700BF0C000024C7
:103420000044025883DE1B432C0E0024FEE7FEE717
:10343000FEE7FEE7FEE7704708B5012002F071FDE8
:1034400008BD08B5022002F06CFD08BD08B50820D3
:1034500002F067FD08BD000008B5024801F020FB3E
:1034600008BD00BF7C0E002408B5024802F0ACFA8B
:1034700008BD00BF0C0D002408B5024802F0A4FAF4
:1034800008BD00BF6C0C002408B5202002F049FDE7
:10349000402002F046FD08BD08B5024804F06EFF6A
:1034A00008BD00BF2C0E002408B54FF4004002F008
:1034B00038FD08BD0120704708B53BF03BF81623E6
:1034C00003604FF0FF3008BD08B54FF0FF31FFF744
:1034D000F3FFFEE770B50C461646002506E000F047
:1034E0002FFB214601F8010B01350C46B542F6DBF6
:1034F000304670BD70B50C461646002504E014F841
:10350000010B00F0FDFA0135B542F8DB304670BD25
:103510004FF0FF3070474FF400534B60002070476E
:10352000012070470020704710B503460C4A0D4932
:103530000D48006840B10C4800680344521A934299
:1035400006D8094A136010BD0748084C0460F2E72A
:103550003AF0F0FF0C2303604FF0FF30F3E700BFB9
:103560000000082400080000780E0024B088012420
:10357000314AD2F8883043F47003C2F888302F4BB8
:103580001B6803F00F03062B06D82C4A136823F0A0
:103590000F0343F007031360294B1A6842F001023E
:1035A0001A6000221A611968264A0A401A60234BE1
:1035B0001B6813F0080F06D0204A136823F00F038E
:1035C00043F0070313601E4B00229A61DA611A620E
:1035D0001D4999621D49D9621D4919635A6399634E
:1035E000DA6319645A64196821F4802119601A6633
:1035F000184B1B686FF30F03B3F1005F03D2164B38
:103600000122C3F808210E4BD3F8D43013F4805FA5
:1036100010D10B4BD3F8D42042F48052C3F8D420FD
:103620000E4A43F2D2011160D3F8D42022F4805222
:10363000C3F8D420704700BF00ED00E00020005226
:10364000004402587FEDF6EA000202020000FF018A
:10365000800201010010005C008000510040005217
:10366000054AD36843F00203D360034B5B6813F44D
:10367000005FFAD0704700BF0048025802681A4B3A
:103680009A4200D0704710B582B00446174BD3F869
:10369000F02042F00102C3F8F020D3F8F03003F03C
:1036A00001030193019B1248124B03600B234360FB
:1036B000402383600023C3604FF4806202614FF4B3
:1036C000006242614FF400528261C361036243624F
:1036D00000F090FD20B9064B63629C6302B010BD00
:1036E000FFF75FFDF7E700BF00000140004402580C
:1036F0007C0E00241000024000B587B00023019327
:10370000029303930493059302680F4B9A4202D0ED
:1037100007B05DF804FB0D4BD3F8E02042F0010246
:10372000C3F8E020D3F8E03003F001030093009BDE
:103730004FF480730193022302930123059301A99F
:10374000034802F0D1FAE3E70000014000440258C8
:103750000000025810B59AB00024169417941894DB
:1037600019941394149415940C940D940E940F942E
:103770001094119412942C22214601A83AF041FE93
:103780003048314B03604460846040F22B13C360C7
:1037900004614461846104F05FFF00283FD14FF46D
:1037A0008053169316A9274805F0AAF8002839D1A6
:1037B000244804F081FF002837D100231393149389
:1037C000159313A91F4805F079FB002830D1602319
:1037D0000C9300220D920E920F921092119212925F
:1037E0000CA9184804F0E2FF28BB002301930293C0
:1037F0000393049305934FF40052069207930893A2
:103800004FF0007209920A930B9301A90D4805F03D
:10381000A5FB98B90B48FFF76FFF1AB010BDFFF773
:10382000C0FCBCE7FFF7BDFCC2E7FFF7BAFCC4E78A
:10383000FFF7B7FCCBE7FFF7B4FCD6E7FFF7B1FC27
:10384000E8E700BFF40E00240000014008B5174867
:10385000174B03604FF4E133436000238360C36080
:1038600003610C2242618361C3610362436283622C
:1038700006F0A4FB70B900210C4806F0DCFC60B92E
:1038800000210A4806F0FCFC50B9084806F0B4FCD8
:1038900048B908BDFFF785FCEDE7FFF782FCEFE7CD
:1038A000FFF77FFCF1E7FFF77CFCF2E768100024EC
:1038B0000010014008B51748174B03604FF4E1238F
:1038C000436000238360C36003610C224261836113
:1038D000C36103624362836206F070FB70B900212A
:1038E0000C4806F0A8FC60B900210A4806F0C8FCA4
:1038F00050B9084806F080FC48B908BDFFF751FCF4
:10390000EDE7FFF74EFCEFE7FFF74BFCF1E7FFF7C2
:1039100048FCF2E7D40F00240048004008B51748DF
:10392000174B03604FF4E123436000238360C360BF
:1039300003610C2242618361C3610362436283625B
:1039400006F03CFB70B900210C4806F074FC60B92D
:1039500000210A4806F094FC50B9084806F04CFCD7
:1039600048B908BDFFF71DFCEDE7FFF71AFCEFE7CC
:10397000FFF717FCF1E7FFF714FCF2E7400F002414
:103980000014014010B5BCB00446002137913891B5
:1039900039913A913B91C02206A83AF032FD236852
:1039A000514A934207D0514A934237D0504A9342EA
:1039B00067D03CB010BD01220023CDE9062306A844
:1039C00003F020FB38BB4B4BD3F8F02042F0100241
:1039D000C3F8F020D3F8F02002F010020092009A11
:1039E000D3F8E02042F00202C3F8E020D3F8E03040
:1039F00003F002030193019B4FF4404337930223EA
:103A00003893002339933A9304233B9337A93A48D8
:103A100002F06AF9CDE7FFF7C4FBD4E702220023E6
:103A2000CDE9062306A803F0EDFA38BB314BD3F8F5
:103A3000E82042F48022C3F8E820D3F8E82002F41A
:103A400080220292029AD3F8E02042F00202C3F8E8
:103A5000E020D3F8E03003F002030393039B4FF41C
:103A60004063379302233893002339933A93072313
:103A70003B9337A9204802F037F99AE7FFF791FB0B
:103A8000D4E701220023CDE9062306A803F0BAFA01
:103A900030BB184BD3F8F02042F02002C3F8F020DE
:103AA000D3F8F02002F020020492049AD3F8E02028
:103AB00042F00402C3F8E020D3F8E03003F004033E
:103AC0000593059BC0233793022338930023399332
:103AD0003A9307233B9337A9084802F005F968E7B2
:103AE000FFF75FFBD5E700BF001001400048004032
:103AF0000014014000440258000402580008025813
:103B000000B583B001900B4B1B78012B0AD04FF00E
:103B1000FF33012201A9084806F0F8F8019803B024
:103B20005DF804FB4FF0FF33012201A9034806F0C2
:103B3000EDF8F3E7FC0B0024D40F002468100024F8
:103B400000B583B000238DF807304FF6FF730122D4
:103B50000DF10701034806F041F99DF8070003B095
:103B60005DF804FBD40F0024DFF838D0FFF778FDB0
:103B7000FFF7FEFC0C480D490D4A002302E0D45823
:103B8000C4500433C4188C42F9D30A4A0A4C0023A7
:103B900001E013600432A242FBD33AF0D1FCFFF7FC
:103BA00067FB704700000824000000244007002441
:103BB00080BD0608F00A0024AC880124FEE700005E
:103BC00010B5032000F096F802F05EFE0F498B69F5
:103BD000C3F303230E4AD35C03F01F03D8408B6961
:103BE00003F00F03D35C03F01F0320FA03F3094A29
:103BF0001360094B18600F20FFF7CAFB10B10124B6
:103C0000204610BD0446FFF7A9FBF9E7004402581F
:103C1000284E04080000002404000024034B1B78F5
:103C2000034A11680B441360704700BF080000246A
:103C3000FC100024014B1868704700BFFC100024E2
:103C400038B50446FFF7F6FF0546B4F1FF3F02D052
:103C5000044B1B781C44FFF7EDFF401BA042FAD336
:103C600038BD00BF08000024014B1868000C7047E5
:103C70000010005C002807DB00F01F024009012350
:103C80009340024A42F82030704700BF00E100E054
:103C9000002804DB0901C9B2044B1954704700F035
:103CA0000F000901C9B2024B1954704700E400E04B
:103CB00014ED00E000B500F00700C0F1070CBCF106
:103CC000040F28BF4FF0040C031D062B0FD9C31E91
:103CD0004FF0FF3E0EFA0CF021EA000199400EFA77
:103CE00003FE22EA0E0241EA02005DF804FB002313
:103CF000EEE700000649CB6823F4E0631B041B0CCD
:103D0000000200F4E0600343024A1A43CA607047AD
:103D100000ED00E00000FA0510B50446054BD86838
:103D2000C0F30220FFF7C6FF01462046FFF7B0FFB1
:103D300010BD00BF00ED00E008B5FFF79BFF08BD18
:103D4000BFF35F8F044B5A6A22F480325A6200221A
:103D5000C3F89420704700BF00ED00E040F0010080
:103D6000054BC3F894005A6A42F480325A62BFF39A
:103D70004F8FBFF36F8F704700ED00E04378144A18
:103D8000C2F89830D2F8A03023F00103C2F8A03076
:103D90004368C2F89C30017BC37A1B0643EA017377
:103DA000817A43EAC143417B43EA8143817B43EA11
:103DB0004143C17B43EA0143417A43EA0123017A4B
:103DC00043EA410301780B43C2F8A030704700BFBB
:103DD00000ED00E0F0B4876D0468664E664DAC42BD
:103DE00018BFB44242D01835AC423FD01835AC426F
:103DF0003CD01835AC4239D01835AC4236D01835E5
:103E0000AC4233D01835AC4230D005F55675AC42D3
:103E10002CD01835AC4229D01835AC4226D01835F4
:103E2000AC4223D01835AC4220D01835AC421DD05E
:103E30001835AC421AD01835AC4217D04F4DAC42B1
:103E400014D01435AC4211D01435AC420ED0143518
:103E5000AC420BD01435AC4208D01435AC4205D07E
:103E60001435AC4202D01435AC4207D1446E856E95
:103E70006560C46E14B1046F456F656004683D4EA3
:103E80003D4DAC4218BFB44252D01835AC424FD071
:103E90001835AC424CD01835AC4249D01835AC423C
:103EA00046D01835AC4243D01835AC4240D005F569
:103EB0005675AC423CD01835AC4239D01835AC42BE
:103EC00036D01835AC4233D01835AC4230D0183526
:103ED000AC422DD01835AC422AD01835AC4227D090
:103EE000264E274DAC4218BFB44211D0254DAC42EE
:103EF0000ED01435AC420BD01435AC4208D014357A
:103F0000AC4205D01435AC4202D01435AC4224D1B9
:103F1000C46D04F01F050124AC407C60046863603C
:103F20008368402B20D0036899600368DA6014E04E
:103F3000C46D04F01F0C3F2404FA0CF4BC60056847
:103F40002C6824F480242C60046863608368402B10
:103F500005D0036899600368DA60F0BC70470368B5
:103F60009A600368D960F8E703689A600368D960CB
:103F7000F3E700BF10000240280002400854025836
:103F80001C5402583054025803682749274A934268
:103F900018BF8B422FD0183293422CD01832934244
:103FA00029D01832934226D01832934223D01832A7
:103FB000934220D0183293421DD002F5567293429C
:103FC00019D01832934216D01832934213D01832B7
:103FD000934210D0183293420DD0183293420AD037
:103FE0001832934207D01832934204D023F0FF03D3
:103FF0008365806D704710B4D9B210390C4AA2FBAA
:104000000142C2F302120B4CA25CC2655F2907D9C0
:104010006FF3090304338365806D5DF8044B7047CB
:104020006FF309038365F7E71000024028000240A0
:10403000ABAAAAAA384E040883699BB9836A012BEC
:104040000AD0022B02D00BB100207047C36A13F0D4
:10405000807F2AD100207047C36AB3F1C07F26D089
:1040600000207047B3F5005F0AD0836A022B26D97F
:10407000032B26D1C36A13F0807F24D10020704720
:10408000836A032B03D8DFE803F01404140A00202A
:104090007047C36A13F0807F0DD100207047C36A58
:1040A000B3F1C07F09D00020704701207047012084
:1040B00070470120704701207047012070470120A0
:1040C00070470020704701207047000003682149B5
:1040D000214A934218BF8B4227D01432934224D0F6
:1040E0001432934221D0143293421ED014329342A0
:1040F0001BD01432934218D01432934215D0DAB246
:10410000103A1649A1FB0212120915491944A829AF
:104110001ED9144B13449B000366134B436602F0F5
:104120001F020123934083667047DBB2083B0F4AAE
:10413000A2FB03230E4A02EB1312920002660D4A01
:104140004266C3F30413012202FA03F38366704745
:104150000832DEE7085402581C540258ABAAAAAA37
:10416000F0FBFDBF0082001080080240CDCCCCCC1B
:10417000009600168058025801794A1E072A2BD84B
:1041800030B40368154D164CA34218BFAB4218D08B
:104190001434A34215D01434A34212D01434A342D1
:1041A0000FD01434A3420CD01434A34209D01434D9
:1041B000A34206D00B4B0B449B00C3660A4B03671C
:1041C00005E00A4B0B449B00C366094B03670123C0
:1041D0009340436730BC7047704700BF0854025893
:1041E0001C5402583F820010400902403F960016BE
:1041F0004059025870B50446FFF71CFD002C00F032
:10420000B981054623685349534A934218BF8B42EC
:104210000CBF0121002150D0183293424DD01832EA
:1042200093424AD01832934247D01832934244D036
:104230001832934241D0183293423ED002F5567262
:1042400093423AD01832934237D01832934234D046
:104250001832934231D0183293422ED01832934202
:104260002BD01832934228D01832934225D03B49A4
:104270003B4A934218BF8B4200F03481394A934243
:1042800000F030811432934200F02C8114329342BA
:1042900000F028811432934200F0248114329342BA
:1042A00000F020811432934200F01C8140236365AA
:1042B000032384F8353001204AE0022284F83520B7
:1042C000002284F8342079BB274A93422CD018323C
:1042D000934229D01832934226D01832934223D0E9
:1042E0001832934220D0183293421DD002F55672F4
:1042F000934219D01832934216D01832934213D0F9
:104300001832934210D0183293420DD01832934293
:104310000AD01832934207D01832934204D01A6858
:1043200022F001021A6003E01A6822F001021A600A
:1043300023681A6812F0010F18D0FFF77BFC431BAB
:10434000052BF5D920236365032384F8353001203C
:1043500070BD00BF100002402800024008540258FF
:104360001C54025830540258400002401A688249D6
:104370001140A268E0680243206902436069024379
:10438000A0690243E0690243206A02430A43616A6A
:10439000042900F09880794909686FF30F01B1F1A1
:1043A000005F10D361682E2940F2928052290AD80A
:1043B0003F2908D33F39724820FA01F111F0010F6B
:1043C00001D042F480121A602668756925F007054D
:1043D000636A1D43042B08D1A36A1D43E36A23B11A
:1043E0002046FFF729FE002876D175612046FFF7A9
:1043F000CBFDE36D03F01F023F23934083602368EE
:104400006049614A934218BF8B4242D018329342AE
:104410003FD0183293423CD01832934239D01832F0
:10442000934236D01832934233D01832934230D070
:1044300002F5567293422CD01832934229D018328A
:10444000934226D01832934223D01832934220D080
:10445000183293421DD0183293421AD01832934228
:1044600017D04A4A934214D01432934211D01432D6
:1044700093420ED0143293420BD01432934208D0A0
:104480001432934205D01432934202D01432934234
:1044900013D12046FFF71AFEA368802B5DD0236E50
:1044A00022791A60636EA26E5A606368013B072B23
:1044B00056D90023E3662367636700206065012304
:1044C00084F8353044E7E16A206B01430A4362E730
:1044D0002929FFF478AF74E740236365012084F84D
:1044E000350035E7022284F83520002284F8342094
:1044F00019686FF31011A268402A2CD0802A27D0A7
:104500000022E06842EAD002206942EAD0026069F3
:1045100042EAD002A06942EAD002E06942EAD0024F
:10452000206A42EA10120A431A602268184B1344A8
:10453000184AA2FB03231B099B00E3652046FFF7F3
:1045400023FDE26D02F01F0101228A40426056E71E
:104550004FF48042D5E71022D3E7002363609EE743
:104560002046FFF709FEE36E00221A60236F626F98
:104570005A60A2E70120EBE63F8010FE0010005CCD
:104580000F030F0010000240280002400854025898
:10459000F8ABFDA7CDCCCCCC002800F03E8170B5A7
:1045A000044690F83400012800F03981012084F895
:1045B000340094F83500C0B2012807D04FF40063EE
:1045C0006365002384F83430012070BD022084F834
:1045D0003500002060652068924E934DA84218BFB8
:1045E000B0422FD01835A8422CD01835A84229D077
:1045F0001835A84226D01835A84223D01835A8422D
:1046000020D01835A8421DD005F55675A84219D0FE
:104610001835A84216D01835A84213D01835A8422C
:1046200010D01835A8420DD01835A8420AD0183538
:10463000A84207D01835A84204D0056825F0010526
:10464000056003E0056825F0010505602046FFF7D9
:10465000C1FB23687349744A934218BF8B4238D018
:104660001832934235D01832934232D018329342E6
:104670002FD0183293422CD01832934229D01832BE
:10468000934226D002F55672934222D018329342BA
:104690001FD0183293421CD01832934219D01832CE
:1046A000934216D01832934213D01832934210D04E
:1046B000183293420DD01A6822F00E0242F00A021C
:1046C0001A60236C93B12268136843F004031360EB
:1046D0000CE01A6822F01E0242F016021A60236CE7
:1046E00023B12268136843F00803136023684D491F
:1046F0004D4A934218BF8B4242D0183293423FD06A
:10470000183293423CD01832934239D01832934237
:1047100036D01832934233D01832934230D002F55B
:10472000567293422CD01832934229D018329342B9
:1047300026D01832934223D01832934220D0183218
:1047400093421DD0183293421AD01832934217D098
:10475000364A934214D01432934211D01432934209
:104760000ED0143293420BD01432934208D014323C
:10477000934205D01432934202D0143293420ED1A8
:10478000236E1A6812F4803F03D01A6842F48072D4
:104790001A60E36E1BB11A6842F480721A602368D3
:1047A0002049214A934218BF8B4230D0183293429D
:1047B0002DD0183293422AD01832934227D0183283
:1047C000934224D01832934221D0183293421ED003
:1047D00002F5567293421AD01832934217D018320B
:1047E000934214D01832934211D0183293420ED013
:1047F000183293420BD01832934208D018329342A9
:1048000005D01A6842F001021A600020DDE61A683D
:1048100042F001021A600020D7E601207047022012
:10482000D3E600BF1000024028000240085402589E
:10483000002800F0288108B5024690F83530DBB238
:10484000022B03D080234365012008BD03689048F4
:1048500090498B4218BF83420CBF0120002065D0D5
:1048600018318B4262D018318B425FD018318B42A5
:104870005CD018318B4259D018318B4256D0183148
:104880008B4253D001F556718B424FD018318B4279
:104890004CD018318B4249D018318B4246D0183158
:1048A0008B4243D018318B4240D018318B423DD0DF
:1048B00018318B423AD0196821F00E011960136843
:1048C000734874498B4218BF83426AD072498B4245
:1048D00067D018318B4264D018318B4261D01831C7
:1048E0008B425ED018318B425BD018318B4258D04E
:1048F00001F556718B4254D018318B4251D018318A
:104900008B424ED018318B424BD018318B4248D05D
:1049100018318B4245D018318B4242D018318B422E
:104920003FD0196821F0010119603EE0042182F8AE
:10493000351080BB584A93422DD0183293422AD06A
:104940001832934227D01832934224D0183293421F
:1049500021D0183293421ED002F5567293421AD0DB
:104960001832934217D01832934214D0183293421F
:1049700011D0183293420ED0183293420BD0183215
:10498000934208D01832934205D01A6822F00102EF
:104990001A60002059E71A6822F001021A6000200C
:1049A00053E7196821F00101196013683848394943
:1049B0008B4218BF834242D018318B423FD018310E
:1049C0008B423CD018318B4239D018318B4236D0D3
:1049D00018318B4233D018318B4230D001F55671EB
:1049E0008B422CD018318B4229D018318B4226D0E3
:1049F00018318B4223D018318B4220D018318B4292
:104A00001DD018318B421AD018318B4217D0234950
:104A10008B4214D014318B4211D014318B420ED002
:104A200014318B420BD014318B4208D014318B429D
:104A300005D014318B4202D014318B4217D1116E44
:104A40000B6823F480730B60906DD36D03F01F012E
:104A500001238B404360536E916E5960D36E33B126
:104A6000196821F480711960136F516F5960012327
:104A700082F83530002382F83430136D2BB11046A4
:104A800098470020E1E6012070470020DDE600BFE6
:104A90001000024028000240400002400854025822
:104AA000F0B583B00446002301937D4B1D687D4B18
:104AB000A3FB0535AD0A876D3E68D7F800C00368D3
:104AC00079497A48834218BF8B420CBF01200020ED
:104AD00061D0774A93425ED0183293425BD018324D
:104AE000934258D01832934255D01832934252D044
:104AF000183293424FD002F5567293424BD018327F
:104B0000934248D01832934245D01832934242D053
:104B1000183293423FD0183293423CD0183293421D
:104B200039D01832934236D06249634A934218BF53
:104B30008B4212D0614A93420FD0143293420CD070
:104B40001432934209D01432934206D01432934265
:104B500003D01432934240F061821A68E16D01F093
:104B60001F010420884010EA0C0F00F0A78212F009
:104B7000040F00F0A382786012F4004F00F05A8214
:104B800012F4803F40F05082A36C002B00F046826C
:104B90002046984742E2E26D02F01F0108228A4057
:104BA000324241D070BB424A93422BD018329342DA
:104BB00028D01832934225D01832934222D018328E
:104BC00093421FD0183293421CD002F55672934282
:104BD00018D01832934215D01832934212D018329E
:104BE00093420FD0183293420CD01832934209D01E
:104BF0001832934206D01832934203D01A68C2F397
:104C0000C00202E01A68C2F380026AB11A6822F098
:104C100004021A60E36D03F01F0208239340BB6097
:104C2000636D43F001036365E26D02F01F0226FA33
:104C300002F313F0010F47D023681B481B498B4236
:104C400018BF83423CD018318B4239D018318B4287
:104C500036D018318B4233D018318B4230D01831D6
:104C60008B422DD018318B422AD001F556718B42E0
:104C700026D018318B4223D018318B4220D01831E6
:104C80008B421DD018318B421AD018318B4217D06D
:104C900018318B4214D018318B4211D01B6813E0AD
:104CA00004000024B5814E1B100002402800024081
:104CB00040000240085402581C5402583054025814
:104CC0005B6913F0800F3BD1E36D03F01F030422F7
:104CD00002FA03F333423FD02268964896498A424B
:104CE00018BF824234D018318A4231D018318A42FA
:104CF0002ED018318A422BD018318A4228D0183150
:104D00008A4225D018318A4222D001F556718A4252
:104D10001ED018318A421BD018318A4218D018315F
:104D20008A4215D018318A4212D018318A420FD0E7
:104D300018318A420CD018318A4209D013680BE02E
:104D400001239340BB60636D43F002036365BBE7DF
:104D5000126812F0020F3DD1E36D03F01F03102221
:104D600002FA03F333425FD02268724872498A42E2
:104D700018BF824234D018318A4231D018318A4269
:104D80002ED018318A422BD018318A4228D01831BF
:104D90008A4225D018318A4222D001F556718A42C2
:104DA0001ED018318A421BD018318A4218D01831CF
:104DB0008A4215D018318A4212D018318A420FD057
:104DC00018318A420CD018318A4209D01268C2F3D5
:104DD000800208E0BB60636D43F004036365BBE7DA
:104DE0001268C2F3C002FAB1BB6023681A6812F4F9
:104DF000802F0DD01B6813F4002F04D1236C9BB1BE
:104E00002046984710E0A36C73B1204698470BE00A
:104E10001A6812F4807F03D11A6822F008021A601F
:104E2000236C0BB120469847E36D03F01F0320224B
:104E300002FA03F3334200F0938022683D483E4972
:104E40008A4218BF82422ED018318A422BD01831A4
:104E50008A4228D018318A4225D018318A4222D07D
:104E600018318A421FD018318A421CD001F5567180
:104E70008A4218D018318A4215D018318A4212D08D
:104E800018318A420FD018318A420CD018318A4228
:104E900009D018318A4206D018318A4203D01268EC
:104EA000C2F3400202E01268C2F30012002A57D097
:104EB000BB6094F83530DBB2042B0ED023681A683F
:104EC00012F4802F3AD01B6813F4002F2DD1636C9D
:104ED000002B45D02046984742E02268136823F013
:104EE000160313602268536923F080035361236C17
:104EF000BBB12268136823F008031360E36D03F06D
:104F00001F023F239340BB60012384F83530002308
:104F100084F83430236D002B00F0808020469847C1
:104F20007CE0A36C002BE4D1E8E7E36BC3B120463F
:104F3000984715E010000240280002401A6812F459
:104F4000807F09D11A6822F010021A60012384F8C8
:104F50003530002384F83430E36B0BB1204698479A
:104F6000636D002B5AD0636D13F0010F52D00423F0
:104F700084F8353023689649964A934218BF8B428D
:104F80002FD0183293422CD01832934229D01832A5
:104F9000934226D01832934223D01832934220D025
:104FA000183293421DD002F55672934219D018322E
:104FB000934216D01832934213D01832934210D035
:104FC000183293420DD0183293420AD018329342CD
:104FD00007D01832934204D01A6822F001021A60F6
:104FE00003E01A6822F001021A60019B0133019369
:104FF000AB4204D823681B6813F0010FF5D1236876
:105000001B6813F0010F0BD0032384F83530002305
:1050100084F83430E36C0BB12046984703B0F0BD00
:10502000012384F83530F2E7236C002BF6D02046BC
:105030009847F3E712F0200F3AD123686449654A94
:10504000934218BF8B422FD0183293422CD0183283
:10505000934229D01832934226D01832934223D05B
:105060001832934220D0183293421DD002F5567266
:10507000934219D01832934216D01832934213D06B
:105080001832934210D0183293420DD01832934206
:105090000AD01832934207D01832934204D01A68CB
:1050A00022F004021A6003E01A6822F008021A6073
:1050B000236C002BB2D020469847AFE702208840EF
:1050C00010EA0C0F60D012F0020F5DD0786012F47D
:1050D000004F0ED012F4803F05D1636C002B9DD0A1
:1050E000204698479AE7E36B002B97D020469847D5
:1050F00094E712F0200F40D123683549354A934296
:1051000018BF8B422FD0183293422CD018329342C2
:1051100029D01832934226D01832934223D0183225
:10512000934220D0183293421DD002F5567293421A
:1051300019D01832934216D01832934213D0183235
:10514000934210D0183293420DD0183293420AD0B5
:105150001832934207D01832934204D01A6822F0D2
:105160000A021A6003E01A6822F014021A6001238E
:1051700084F83530002384F83430E36B002B3FF49F
:105180004DAF2046984749E7082000FA01F111EA9F
:105190000C0F3FF443AF12F0080F3FF43FAF1A6813
:1051A00022F00E021A60E36D03F01F03012202FADF
:1051B00003F37B60626584F83520002384F8343083
:1051C000E36C002B3FF42AAF2046984726E700BF48
:1051D000100002402800024030B4416B0468D4F84B
:1051E00084306F4A134043EA8103C4F88430046872
:1051F000D4F8843023F47F03856B43EA0543C4F875
:105200008430836B0B440468D4F88810114041EA61
:105210008301C4F888100468D4F8881021F4FE01D2
:10522000C56B41EA0541C4F88810C16B03EB41032B
:105230000468D4F8A010114041EA8301C4F8A0101A
:105240000468D4F8A01021F4FE01056C41EA054180
:10525000C4F8A010016C446C04FB01330468D4F85A
:10526000B010114041EA8301C4F8B0100468D4F8CA
:10527000B01021F4FE01856C41EA0541C4F8B0107C
:10528000816CC46C04FB01330468D4F8AC10114089
:1052900041EA8301C4F8AC10016D446D04FB013395
:1052A0000468D4F8F010114041EA8301C4F8F0100A
:1052B0000468D4F8F01021F47C11856D41EA0541B1
:1052C000C4F8F010816D03EB41030468D4F8C010FA
:1052D0000A4042EA8303C4F8C0300268D2F8C03002
:1052E00023F47C13C16D43EA0143C2F8C030026865
:1052F000D2F8C03023F07C53016E43EA0163C2F858
:10530000C030436B274A1A449200C266836B02EB9B
:1053100083030367C16B03EBC1034367016C446CF8
:1053200004FB01F103EB81038367816CC46C04FB14
:1053300001F103EB8103C367016D446D04FB01F1CF
:1053400003EB8103C0F88030816D03EBC103C0F82B
:105350008430816EC46D01FB04FC03EB8C03C0F848
:105360008830046E04FB01F103EB8103C0F8903038
:105370000D498B420DD9D0F89C3043F02003C0F882
:105380009C30032380F89830012007E0002342F886
:10539000043BD0F890309342F8D8002030BC7047DE
:1053A0000300FFFF002B0010FCD3004030B595B088
:1053B00004464C22A04901A839F0EAF8002C00F07C
:1053C000388123689D4A934220D094F898300BB3DB
:1053D0002268936923F010039361FEF72BFC0546C6
:1053E00023689A6912F0080F1AD0FEF723FC431BBA
:1053F0000A2BF5D9D4F89C3043F00103C4F89C3053
:10540000032384F89830012015B030BD03F5807374
:105410006360DAE784F899302046FDF7D3F8D7E7E0
:105420009A6942F001029A61FEF704FC054623687E
:105430009A6912F0010F0FD1FEF7FCFB401B0A28FE
:10544000F5D9D4F89C3043F00103C4F89C30032311
:1054500084F898300120D7E79A6942F002029A61F5
:10546000237C012B40D02268936943F04003936171
:10547000637C012B3ED02268936923F480439361BF
:10548000A37C012B3CD02268936943F48053936141
:105490002268936923F44073A1680B4393612268E7
:1054A000936923F0A40393612268136923F0100326
:1054B0001361E368012B29D0002B2CD0022B00F0C4
:1054C0009B802268936943F080039361226813698B
:1054D00043F010031361E368032B1CD12268936926
:1054E00043F02003936116E02268936923F04003A0
:1054F0009361BDE72268936943F480439361BFE7FA
:105500002268936923F480539361C1E72268936909
:1055100043F004039361A3695A1EE369013B1B0234
:1055200043EA4263226A013A13436269013A2168FD
:1055300043EA0243CB61A368B3F5407F62D0236E98
:1055400033B12268D2F8C030616E0B43C2F8C0306C
:10555000E36D226ED3420DD02168D1F8C83023F01C
:105560000703A26E14A800EB820252F84C2C1343DE
:10557000C1F8C830236C6BB12168D1F8BC3023F07E
:105580000703626C14A800EB820252F84C2C134300
:10559000C1F8BC30A36C73B12168D1F8BC3023F0E2
:1055A0007003E26C14A800EB820252F84C2C43EA20
:1055B0000213C1F8BC30236D73B12168D1F8BC303F
:1055C00023F4E063626D14A800EB820252F84C2CC5
:1055D00043EA0223C1F8BC302268184B9A4222D019
:1055E0000023C4F89430C4F89C30012384F8983028
:1055F0002046FFF7F1FD07E72268936943F0200397
:10560000936188E7A36A013BE26A013A43EA022315
:10561000226B013A43EA0213626A013A216843EAC3
:105620000243CB608BE76268936823F003039360C7
:10563000D6E70120E8E600BFD840040800A00040FB
:1056400090F89830013BDBB2012B07D9D0F89C30A1
:1056500043F00203C0F89C30012070470B68DBB9AF
:10566000CB68072B0ED08A68DB0643EA82730A698F
:1056700043EA02434A691343C26E496842F8213043
:10568000002070470A69CB691B0243EA02438A691A
:10569000134343F06053EFE710B4CA680B6943EA61
:1056A0004273072A0FD04A698C6842EA8472006FFD
:1056B000496800EBC10C40F83130CCF804200020E0
:1056C0005DF8044B70478A69F1E790F898C05FFA7B
:1056D0008CFCBCF1010F07D0D0F89C3043F00403E0
:1056E000C0F89C3001207047920042EA011242EA61
:1056F00043030168009A1A43C1F8802000207047D4
:1057000090F89830DBB2012B07D0D0F89C3043F0F2
:105710000403C0F89C3001207047022380F89830C1
:105720000268936923F0010393610023C0F89C3061
:105730001846704790F898C05FFA8CFCBCF1020FD5
:1057400040F0DF8070B540290CD041293DD0046D78
:105750008C426DD8D0F89C3043F02003C0F89C30C8
:105760000120C1E00468D4F8A05015F4FE0F0CD05D
:10577000D4F8A45015F07F0F0FD1D0F89C3043F42B
:105780008073C0F89C300120AEE0D0F89C3043F02C
:105790002003C0F89C300120A6E0D4F8A46016F0E5
:1057A000807604D0D4F8A050002D0CDB0026D4F86D
:1057B000A440C4F305242644456F446C06FB04F45E
:1057C00005EB840E3BE00126F1E70468D4F8B05005
:1057D00015F4FE0F0CD0D4F8B45015F07F0F0FD194
:1057E000D0F89C3043F48073C0F89C3001207BE0FB
:1057F000D0F89C3043F02003C0F89C30012073E0C7
:10580000D4F8B46016F0807604D0D4F8B050002DEF
:105810000CDB0026D4F8B440C4F305242644856F7D
:10582000C46C06FB04F405EB840E08E00126F1E7E6
:10583000C56F446D01FB04F405EB840E0026DEF811
:10584000004004F08044546064BBDEF80040C4F3C0
:105850008A441460DEF8004004F000549460DEF8DE
:10586000004004F000441461BEF80440D461BEF866
:10587000064004F00F04D460DEF8044004F4801401
:105880005461DEF8044004F4001494619EF807406B
:1058900004F07F041462DEF80440E40F54624FF019
:1058A000000C0CE0DEF8004024F060441460D1E706
:1058B0000EEB0C04247A03F80C400CF1010CD468B4
:1058C000144D2C5D6445F3D8402909D041290CD0F2
:1058D0001F290ED8026801238B40C2F8983002E0DD
:1058E0000368C3F8A860002070BD0368C3F8B860FF
:1058F000F9E701F01F01026801238B40C2F89C30D8
:10590000F1E7D0F89C3043F00803C0F89C30012048
:10591000704700BF404E040890F89830013BDBB25E
:10592000012B07D9D0F89C3043F00203C0F89C301B
:105930000120704710B403689C6D0C4224D1DC6DCB
:1059400044F00104DC6511F4007F05D00468D4F84C
:10595000E0301343C4F8E03011F4806F05D00468E0
:10596000D4F8E4301343C4F8E4300068436D0C4AC3
:105970000A40134343650B4A536943EA91735361E9
:1059800000205DF8044B70479C6D31EA040402D09E
:105990000324DC65D7E7DC6D44F00204DC65D2E764
:1059A000FFFFCF3F00A80040704770477047704727
:1059B000704770477047704770477047704770472F
:1059C00070477047704770472DE9F04F83B0044629
:1059D000904B1A695B69134001939B07009303681E
:1059E0001A6D02F4704A5A6D0AEA020A1A6D02F040
:1059F0000F095A6D09EA02091A6D02F0F0085A6D92
:105A000008EA02081E6D06F071565A6D16401F6DA9
:105A100007F060775A6D17405D6DD3F850B015F4FC
:105A2000807F02D01BF4807F64D115F4806F02D098
:105A30001BF4806F67D1009B002B74D1BAF1000F6B
:105A40007ED1B9F1000F40F08780B8F1000F40F02F
:105A50008F8015F4006F03D01BF4006F40F094802A
:105A600015F4007F03D01BF4007F40F0988015F4FC
:105A7000002F03D01BF4002F40F0A18015F4803FCD
:105A800003D01BF4803F40F0A58015F4802F03D095
:105A90001BF4802F40F0A98015F4003F0FD01BF4B9
:105AA000003F0CD023684FF400321A65594B002296
:105AB0001A61D4F89C3043F08003C4F89C30002F66
:105AC00040F09E804EB123681E65B20F514B1A61A3
:105AD000D4F89C303343C4F89C3022684E4B9A4231
